{
  "contractName": "Lottery",
  "abi": [
    {
      "inputs": [
        {
          "internalType": "address",
          "name": "_ethUsdpriceFeed",
          "type": "address"
        },
        {
          "internalType": "uint256",
          "name": "_usdEntryFee",
          "type": "uint256"
        }
      ],
      "stateMutability": "nonpayable",
      "type": "constructor"
    },
    {
      "anonymous": false,
      "inputs": [
        {
          "indexed": true,
          "internalType": "address",
          "name": "previousOwner",
          "type": "address"
        },
        {
          "indexed": true,
          "internalType": "address",
          "name": "newOwner",
          "type": "address"
        }
      ],
      "name": "OwnershipTransferred",
      "type": "event"
    },
    {
      "inputs": [],
      "name": "isOwner",
      "outputs": [
        {
          "internalType": "bool",
          "name": "",
          "type": "bool"
        }
      ],
      "stateMutability": "view",
      "type": "function"
    },
    {
      "inputs": [],
      "name": "lotteryState",
      "outputs": [
        {
          "internalType": "enum Lottery.LOTTERY_STATE",
          "name": "",
          "type": "uint8"
        }
      ],
      "stateMutability": "view",
      "type": "function"
    },
    {
      "inputs": [],
      "name": "owner",
      "outputs": [
        {
          "internalType": "address",
          "name": "",
          "type": "address"
        }
      ],
      "stateMutability": "view",
      "type": "function"
    },
    {
      "inputs": [
        {
          "internalType": "uint256",
          "name": "",
          "type": "uint256"
        }
      ],
      "name": "players",
      "outputs": [
        {
          "internalType": "address payable",
          "name": "",
          "type": "address"
        }
      ],
      "stateMutability": "view",
      "type": "function"
    },
    {
      "inputs": [],
      "name": "randomness",
      "outputs": [
        {
          "internalType": "uint256",
          "name": "",
          "type": "uint256"
        }
      ],
      "stateMutability": "view",
      "type": "function"
    },
    {
      "inputs": [
        {
          "internalType": "address",
          "name": "newOwner",
          "type": "address"
        }
      ],
      "name": "transferOwnership",
      "outputs": [],
      "stateMutability": "nonpayable",
      "type": "function"
    },
    {
      "inputs": [],
      "name": "usdEntryFee",
      "outputs": [
        {
          "internalType": "uint256",
          "name": "",
          "type": "uint256"
        }
      ],
      "stateMutability": "view",
      "type": "function"
    },
    {
      "inputs": [],
      "name": "entry",
      "outputs": [],
      "stateMutability": "payable",
      "type": "function"
    },
    {
      "inputs": [],
      "name": "getEntranceFee",
      "outputs": [
        {
          "internalType": "uint256",
          "name": "",
          "type": "uint256"
        }
      ],
      "stateMutability": "view",
      "type": "function"
    },
    {
      "inputs": [],
      "name": "getLatestEthUsdPrice",
      "outputs": [
        {
          "internalType": "uint256",
          "name": "",
          "type": "uint256"
        }
      ],
      "stateMutability": "view",
      "type": "function"
    },
    {
      "inputs": [],
      "name": "startLottery",
      "outputs": [],
      "stateMutability": "nonpayable",
      "type": "function"
    }
  ],
  "bytecode": "0x608060405234801561001057600080fd5b50604051610afb380380610afb8339818101604052604081101561003357600080fd5b810190808051906020019092919080519060200190929190505050336000806101000a81548173ffffffffffffffffffffffffffffffffffffffff021916908373ffffffffffffffffffffffffffffffffffffffff1602179055506000809054906101000a900473ffffffffffffffffffffffffffffffffffffffff1673ffffffffffffffffffffffffffffffffffffffff16600073ffffffffffffffffffffffffffffffffffffffff167f8be0079c531659141344cd1fd0a4f28419497f9722a3daafe3b4186f6b6457e060405160405180910390a381600160006101000a81548173ffffffffffffffffffffffffffffffffffffffff021916908373ffffffffffffffffffffffffffffffffffffffff1602179055508060028190555060018060146101000a81548160ff0219169083600281111561017057fe5b02179055505050610975806101866000396000f3fe60806040526004361061009c5760003560e01c80636939864b116100645780636939864b1461014357806388ab139a1461017c5780638da5cb5b146101a75780638f32d59b146101fe578063f2fde38b1461022d578063f71d96cb1461027e5761009c565b806309bc33a7146100a1578063160344e2146100cc57806330214599146100e3578063360131891461010e57806367f239dd14610139575b600080fd5b3480156100ad57600080fd5b506100b66102f9565b6040518082815260200191505060405180910390f35b3480156100d857600080fd5b506100e1610334565b005b3480156100ef57600080fd5b506100f8610477565b6040518082815260200191505060405180910390f35b34801561011a57600080fd5b50610123610560565b6040518082815260200191505060405180910390f35b610141610566565b005b34801561014f57600080fd5b5061015861067a565b6040518082600281111561016857fe5b60ff16815260200191505060405180910390f35b34801561018857600080fd5b5061019161068d565b6040518082815260200191505060405180910390f35b3480156101b357600080fd5b506101bc610693565b604051808273ffffffffffffffffffffffffffffffffffffffff1673ffffffffffffffffffffffffffffffffffffffff16815260200191505060405180910390f35b34801561020a57600080fd5b506102136106bc565b604051808215151515815260200191505060405180910390f35b34801561023957600080fd5b5061027c6004803603602081101561025057600080fd5b81019080803573ffffffffffffffffffffffffffffffffffffffff169060200190929190505050610713565b005b34801561028a57600080fd5b506102b7600480360360208110156102a157600080fd5b8101908080359060200190929190505050610799565b604051808273ffffffffffffffffffffffffffffffffffffffff1673ffffffffffffffffffffffffffffffffffffffff16815260200191505060405180910390f35b600080670de0b6b3a764000090506000610311610477565b905060006305f5e1006002540282848161032757fe5b0402905080935050505090565b61033c6106bc565b6103ae576040517f08c379a00000000000000000000000000000000000000000000000000000000081526004018080602001828103825260208152602001807f4f776e61626c653a2063616c6c6572206973206e6f7420746865206f776e657281525060200191505060405180910390fd5b600160028111156103bb57fe5b600160149054906101000a900460ff1660028111156103d657fe5b14610449576040517f08c379a000000000000000000000000000000000000000000000000000000000815260040180806020018281038252601a8152602001807f43616e27742073746172742061206e6577206c6f74746572792100000000000081525060200191505060405180910390fd5b6000600160146101000a81548160ff0219169083600281111561046857fe5b02179055506000600481905550565b600080600080600080600160009054906101000a900473ffffffffffffffffffffffffffffffffffffffff1673ffffffffffffffffffffffffffffffffffffffff1663feaf968c6040518163ffffffff1660e01b815260040160a06040518083038186803b1580156104e857600080fd5b505afa1580156104fc573d6000803e3d6000fd5b505050506040513d60a081101561051257600080fd5b81019080805190602001909291908051906020019092919080519060200190929190805190602001909291908051906020019092919050505094509450945094509450839550505050505090565b60045481565b61056e6102f9565b3410156105e3576040517f08c379a00000000000000000000000000000000000000000000000000000000081526004018080602001828103825260178152602001807f4e6f7420456e6f7567682045544820746f20454e54455200000000000000000081525060200191505060405180910390fd5b600060028111156105f057fe5b600160149054906101000a900460ff16600281111561060b57fe5b1461061557600080fd5b6003339080600181540180825580915050600190039060005260206000200160009091909190916101000a81548173ffffffffffffffffffffffffffffffffffffffff021916908373ffffffffffffffffffffffffffffffffffffffff160217905550565b600160149054906101000a900460ff1681565b60025481565b60008060009054906101000a900473ffffffffffffffffffffffffffffffffffffffff16905090565b60008060009054906101000a900473ffffffffffffffffffffffffffffffffffffffff1673ffffffffffffffffffffffffffffffffffffffff163373ffffffffffffffffffffffffffffffffffffffff1614905090565b61071b6106bc565b61078d576040517f08c379a00000000000000000000000000000000000000000000000000000000081526004018080602001828103825260208152602001807f4f776e61626c653a2063616c6c6572206973206e6f7420746865206f776e657281525060200191505060405180910390fd5b610796816107d5565b50565b600381815481106107a657fe5b906000526020600020016000915054906101000a900473ffffffffffffffffffffffffffffffffffffffff1681565b600073ffffffffffffffffffffffffffffffffffffffff168173ffffffffffffffffffffffffffffffffffffffff16141561085b576040517f08c379a000000000000000000000000000000000000000000000000000000000815260040180806020018281038252602681526020018061091a6026913960400191505060405180910390fd5b8073ffffffffffffffffffffffffffffffffffffffff166000809054906101000a900473ffffffffffffffffffffffffffffffffffffffff1673ffffffffffffffffffffffffffffffffffffffff167f8be0079c531659141344cd1fd0a4f28419497f9722a3daafe3b4186f6b6457e060405160405180910390a3806000806101000a81548173ffffffffffffffffffffffffffffffffffffffff021916908373ffffffffffffffffffffffffffffffffffffffff1602179055505056fe4f776e61626c653a206e6577206f776e657220697320746865207a65726f2061646472657373a26469706673582212201e3f5e592bc60bfa1b23202a82a05b48e50bdef9e35cdf1c5e006a6782d1d10a64736f6c63430006060033",
  "immutableReferences": {},
  "source": "// SPDX-License-Identifier: MIT\npragma solidity ^0.6.6;\n\nimport \"@chainlink/contracts/src/v0.6/interfaces/AggregatorV3Interface.sol\";\nimport \"@chainlink/contracts/src/v0.6/vendor/SafeMathChainlink.sol\";\nimport \"@chainlink/contracts/src/v0.6/vendor/Ownable.sol\";\n\ncontract Lottery is Ownable {\n    using SafeMathChainlink for uint256;\n    AggregatorV3Interface internal ethUsdpriceFeed;\n    enum LOTTERY_STATE {\n        OPEN,\n        CLOSED,\n        PROCESSING\n    }\n    LOTTERY_STATE public lotteryState;\n    uint256 public usdEntryFee;\n    address payable[] public players;\n    uint256 public randomness;\n\n    constructor(address _ethUsdpriceFeed, uint256 _usdEntryFee) public {\n        ethUsdpriceFeed = AggregatorV3Interface(_ethUsdpriceFeed);\n        usdEntryFee = _usdEntryFee;\n        lotteryState = LOTTERY_STATE.CLOSED;\n    }\n\n    function entry() public payable {\n        require(msg.value >= getEntranceFee(), \"Not Enough ETH to ENTER\");\n        require(lotteryState == LOTTERY_STATE.OPEN);\n        players.push(msg.sender);\n    }\n\n    function getEntranceFee() public view returns (uint256) {\n        uint256 precision = 1 * 10**18;\n        uint256 price = getLatestEthUsdPrice();\n        uint256 costToEnter = (precision / price) * (usdEntryFee * 100000000);\n        return costToEnter;\n    }\n\n    function getLatestEthUsdPrice() public view returns (uint256) {\n        (\n            uint80 roundID,\n            int256 price,\n            uint256 startedAt,\n            uint256 timeStamp,\n            uint80 answeredInRound\n        ) = ethUsdpriceFeed.latestRoundData();\n        return uint256(price);\n    }\n\n    function startLottery() public onlyOwner {\n        require(\n            lotteryState == LOTTERY_STATE.CLOSED,\n            \"Can't start a new lottery!\"\n        );\n        lotteryState = LOTTERY_STATE.OPEN;\n        randomness = 0;\n    }\n\n    // function endLottery() public {}\n\n    // function pickWinner() {}\n}\n",
  "sourcePath": "/Users/apple/Documents/projects/chainlink-lottery/contracts/Lottery.sol",
  "compiler": {
    "name": "solc",
    "version": "0.6.6+commit.6c089d02.Emscripten.clang"
  },
  "schemaVersion": "3.4.5",
  "updatedAt": "2022-02-25T11:19:21.417Z",
  "devdoc": {
    "methods": {
      "isOwner()": {
        "details": "Returns true if the caller is the current owner."
      },
      "owner()": {
        "details": "Returns the address of the current owner."
      },
      "transferOwnership(address)": {
        "details": "Transfers ownership of the contract to a new account (`newOwner`). Can only be called by the current owner."
      }
    }
  },
  "userdoc": {
    "methods": {}
  }
}